:020000040800F2
:10000000081300200D020008451300081510000811
:1000100041130008190800089D270008000000008F
:10002000000000000000000000000000D5180008DB
:10003000910D000800000000D10100085D1B0008C0
:1000400027020008270200082702000827020008EC
:100050002702000827020008A10D0008B30D0008C0
:10006000C50D0008D70D000827020008350D00084F
:1000700027020008270200082702000827020008BC
:1000800027020008270200082702000827020008AC
:10009000852700081D08000827020008270200081D
:1000A000C11E000827020008D91E00082702000808
:1000B00027020008F11E0008270200082702000896
:1000C000270200082702000827020008270200086C
:1000D00027020008C1250008512600082702000851
:1000E00027020008270200082702000800F002F893
:1000F00000F03AF80AA090E8000C82448344AAF188
:100100000107DA4501D100F02FF8AFF2090EBAE885
:100110000F0013F0010F18BFFB1A43F0010318473B
:100120000428000024280000103A24BF78C878C1B1
:10013000FAD8520724BF30C830C144BF04680C60ED
:10014000704700000023002400250026103A28BF35
:1001500078C1FBD8520728BF30C148BF0B60704739
:100160001FB51FBD10B510BD00F073F81146FFF7A5
:10017000F7FF02F0A3FB00F091F803B4FFF7F2FFE2
:1001800003BC00F095F8000002B472B601780131AA
:10019000017062B60139080002BC704702B472B641
:1001A00001780139017062B6080002BC7047000096
:1001B00062B6704772B670471C3880F30988704782
:1001C00002484FF0805101607047000004ED00E0EC
:1001D0000B4B19680B4A126891420AD0EFF3098061
:1001E00020E9F00F08601A601068B0E8F00F80F3A3
:1001F0000988054B002018704EF0040E704700006F
:1002000054000020500000203100002009488047A1
:1002100009480047FEE7FEE7FEE7FEE7FEE7FEE7E8
:10022000FEE7FEE7FEE7FEE704480549054A064B00
:1002300070470000F91B0008ED000008080D0020C1
:1002400008130020080F0020080F00207047704797
:100250007047754600F028F8AE46050069465346DB
:1002600020F00700854618B020B5FFF7DDFFBDE898
:1002700020404FF000064FF000074FF000084FF00D
:10028000000B21F00701AC46ACE8C009ACE8C0099E
:10029000ACE8C009ACE8C0098D4670470446AFF32E
:1002A00000802046FFF769FF00487047A80C002037
:1002B00001491820ABBEFEE726000200704721B1BD
:1002C000826842F00102826003E0826822F001024B
:1002D0008260704700B585B00020009001208DF845
:1002E00004008DF805004FF4602002900020039078
:1002F00001208DF810006946104800F051F80523E0
:1003000001220B210D4800F073F801210B48FFF783
:10031000D6FF0A4800F0C8F800BF084800F02CF8E3
:100320000028FAD1054800F0CFF800BF034800F0DC
:1003300015F80028FAD105B000BD000000240140E6
:1003400008B50220ADF8000000208DF803006946D2
:10035000014800F0C9FD08BD001001400146002021
:100360008A6812F0040F01D0012000E000207047DD
:100370000146C86C80B27047014600208A6812F0BE
:10038000080F01D0012000E0002070470146002046
:100390008A6812F4800F01D0012000E0002070472D
:1003A00030B502460020002350680F4C20400D79E4
:1003B0000C6844EA05242043506090680B4C2040B0
:1003C000D1E902542C434D7944EA4504204390601E
:1003D000D06A20F470000C7C641EE4B2234340EA2F
:1003E0000350D06230BD0000FFFEF0FFFDF7F1FFCB
:1003F000F0B504460D4600200021092D11DDE0680E
:10040000A5F10A0606EB4607072606FA07F1884318
:10041000A5F10A0606EB460603FA06F10843E0607A
:100420000CE0206905EB4507072606FA07F188432B
:1004300005EB450603FA06F108432061072A0FDAA7
:10044000606B561E06EB86071F2606FA07F18843E7
:10045000561E06EB860605FA06F10843606322E0A5
:100460000D2A0FDA206BD61F06EB86071F2606FA29
:1004700007F18843D61F06EB860605FA06F1084306
:10048000206310E0E06AA2F10D0606EB86071F2646
:1004900006FA07F18843A2F10D0606EB860605FA77
:1004A00006F10843E062F0BD816841F00801816017
:1004B000704721B1826842F4A002826003E0826842
:1004C00022F4A00282607047816841F004018160DB
:1004D0007047000010B50B480078401C09490870AF
:1004E0000948006818B900F095FF002010BD0648C3
:1004F00004680068406A0449086000F08BFF2046E9
:10050000F4E70000310000204800002008B54FF457
:10051000E060ADF8000018208DF8030003208DF88E
:1005200002006946124800F0DFFC4FF46040ADF86D
:10053000000018208DF8030003208DF802006946A2
:100540000C4800F0D1FCC020ADF8000048208DF828
:1005500003006946064800F0C7FC0120ADF8000022
:1005600048208DF803006946024800F0BDFC08BD34
:1005700000080140000C014000B50D48008840F023
:1005800006000B4908804020091D088002F008F988
:100590000848008840F001000649088005480C30F2
:1005A000008840F0500003490C31088000BD000075
:1005B000082C01400004004000B5184800884FF6A0
:1005C000F871084015490880002014491831088046
:1005D000282000F0DEFB40F6CC401049183108809E
:1005E00000BF0F4800780128FBDB00200B491831C1
:1005F00008800C4800884FF6FE71084009490880C1
:10060000002008492431088006480C3000884FF645
:10061000AF71084003490C31088000BD082C01402F
:100620006D0000200004004000B58BB0454801F08B
:1006300021FD0220ADF820004020ADF8220040F25C
:10064000DB50ADF824000020ADF826008DF828001E
:1006500008A93C4801F04CFF7020ADF810000020C4
:10066000ADF81200ADF814004FF49660ADF8160026
:100670000020ADF81800ADF81A00ADF81C00ADF878
:100680001E0004A92F4801F0A5FD4FF49660ADF8B7
:10069000160004A92B4801F0E3FD4FF49660ADF875
:1006A000160004A9274801F037FE7020ADF81000AD
:1006B0000020ADF8120040F2D750ADF8160000202F
:1006C000ADF8180004A91F4801F07CFE4FF400604B
:1006D000ADF800004010ADF802008010ADF8040045
:1006E0006420ADF806000020ADF80800ADF80A005F
:1006F000ADF80C006946134801F08EFC0821114842
:1007000001F0A4FD08210F4801F0F8FD08210D4873
:1007100001F04EFE20210B4801F09AFE012109480C
:1007200001F099FC2021074801F086FC01222021DC
:10073000044801F046FD0121024801F080FC0BB0A5
:1007400000BD0000002C014000B58BB0314801F025
:1007500091FC4720ADF820000020ADF822004FF6B4
:10076000FF70ADF824000020ADF826008DF82800B9
:1007700008A9284801F0BCFE0020ADF81400ADF82F
:1007800016000320ADF818000020ADF81A000A206A
:10079000ADF81C0005A91F4801F0DCFC7020ADF885
:1007A00004000120ADF8060040F2FF30ADF80A0069
:1007B0000020ADF80C0001A9164801F051FD002001
:1007C000ADF80400ADF806004FF6FF70ADF80A0072
:1007D0000020ADF80C0001A90E4801F0F3FD012145
:1007E0000C4801F029FE40210A4801F031FE0421A5
:1007F000084801F048FE8021064801F032FE5021F1
:10080000044801F037FE01225021024801F0D9FCD2
:100810000BB000BD0004004000BFFEE7704711B9F7
:100820002022C26001E020220261704730B50546F7
:100830000C46134605F5D87000EB0410006800F074
:1008400004001872187A50B905F5D87000EB04103E
:10085000006840F2FF7101EA5050186009E005F5A8
:10086000D87000EB041000686FF0604101EAD0001E
:10087000586005F5D87000EB0410006800F0020025
:10088000587205F5D87000EB0410406800F00F00B6
:10089000987205F5D87000EB04104068000AD8740F
:1008A00005F5D87000EB04108068D87205F5D87093
:1008B00000EB04108068010A197305F5D87000EB8D
:1008C00004108068010C597305F5D87000EB041012
:1008D0008068000E987305F5D87000EB0410C068AE
:1008E000D87305F5D87000EB0410C068010A1974BC
:1008F00005F5D87000EB0410C068010C597405F5BB
:10090000D87000EB0410C068000E98742146284689
:10091000FFF785FF30BD0000084809490860C8306E
:100920004860C83807490860002009680860054920
:10093000096848600349096888607047E409002035
:100940003C0000203800002000BFFEE710B514482E
:100950004FF0E0214861072008611248006840F02C
:100960007F4010490860081D00680F4908430D4981
:10097000091D086000F064F900F03EF9FFF7CCFFB4
:100980000A480078401C09490870094B4FF4CA52C4
:100990000021084800F070F90548FFF70DFC10BD74
:1009A0007FFC0A001CED00E00000FFFF310000208A
:1009B000400C00204909000870B505460E46142D6C
:1009C00001DB012070BD0E4800EB0514607900F0DA
:1009D0000F00022801D00120F4E7E08870B909482F
:1009E0000078401C0749087026600120E0802046FE
:1009F00000F014FA00F00EFD0020E3E70720E1E725
:100A000090080020310000202DE9F04106460F46F5
:100A1000142E02DB0120BDE8F081164800EB06151C
:100A2000687900F00F00032801D00120F3E72C685B
:100A3000A0896189884201D10820ECE70E4800783E
:100A4000401C0D4908702189206840F821702089D8
:100A5000401C2081A089401CA08120896189884296
:100A600001D100202081284600F0D8F900F0D2FC06
:100A70000020D0E7900800203100002070B5054626
:100A8000142D01DB012070BD0F4800EB05146079C7
:100A900000F00F00012801D00120F4E7E08821894F
:100AA000884201D10620EEE708480078401C07493B
:100AB0000870E088401CE080204600F0AFF900F0AC
:100AC000A9FC0020DFE70000900800203100002092
:100AD00070B50646244C202E01DB012070BD01219B
:100AE000B140A068084201D10120F7E70120B040E1
:100AF0002168014201D00020F0E70120B0402168C8
:100B00000143216019480078401C18490870E568C5
:100B100023E0287C80B9A86821680840A968884239
:100B200019D1284600F0BEFD05460120B04061689D
:100B3000014200D013E010E0A868216808420AD002
:100B4000284600F0AFFD05460120B0406168014233
:100B500000D004E001E02D6800BF002DD9D100BF16
:100B600000F058FC0020B9E7D00900203100002037
:100B700010B5094809490860084600680849086036
:100B800001200649096848710448006800F0A8FD82
:100B900000F040FC10BD0000D80A002054000020E6
:100BA0005000002000BFFEE710B504460F48007853
:100BB000002801DD032010BD601C01D10220FAE7EE
:100BC0000CB90020F7E70A48007808B11520F2E7D1
:100BD00007480078401C064908702146054800680F
:100BE00000F02AFA00F016FC0020E4E730000020B4
:100BF000310000205400002010B500210E4800F103
:100C000010020AE002600171437923F00F031B1DFB
:100C10004371103010324B1CD9B21329F2DB4379E7
:100C200023F00F031B1D4371002303600171024B6E
:100C3000024C236010BD000090080020340000200A
:100C400010B50B4800F12C02002107E0817103234D
:100C5000437142622C302C324B1CD9B20529F5DB92
:100C6000817100234362024B024C236010BD0000DF
:100C7000D80A0020480000202DE9FF5F8046154675
:100C80001E46C5F30B2B05F0FF0AB8F1000F03D188
:100C9000FF2004B0BDE8F09F0EB9FF20F9E7BAF1DC
:100CA000400F01DDFF20F4E7BBF1140F01DAFF2054
:100CB000EFE732464046019900F0AEF98146FFF772
:100CC00009FC04460CB9FF20E3E7C4F8009084F85F
:100CD00004A0301DA0EB8B00E0601448E1680860C0
:100CE0004FF0FF30206200206062A062C5F30A5717
:100CF00007B90A2767810020E061FF2020720020E9
:100D000020616061A061FF20E071E80F0AD108480E
:100D10000078401C06490870204600F06FFA00F089
:100D200079FB01E002206071A079B2E7A5A55A5ACB
:100D30003100002010B5022000F014F810B102209C
:100D400000F002F810BD000010F0805F02D00349EF
:100D5000086001E002494860704700000404024056
:100D60000000024001460020002211F0805F02D006
:100D7000054B1A6801E0054B1A680A4201D00120B0
:100D800000E0002070470000000402400000024024
:100D9000704700BF0100A0F10102D0B2FAD1704744
:100DA00010B5012000F026F810B1012000F01CF869
:100DB00010BD10B5022000F01DF810B1022000F0A7
:100DC00013F810BD10B5042000F014F810B1042081
:100DD00000F00AF810BD10B5082000F00BF810B1B3
:100DE000082000F001F810BD0149086070470000BC
:100DF00014040140014600200022074B1B6803EA4F
:100E00000102054B14331B680B4202D00AB10120CA
:100E100000E00020704700000004014070B5044667
:100E2000E56805B970BD6869E060E06810B1002050
:100E3000E168886100206861FF202872286A401CF0
:100E400002D0284600F0D0FB607900F00F000228A5
:100E500007D12068286100202060E088401EE080E3
:100E600022E0607900F00F00032812D12668F18893
:100E7000306850F821002861F088401CF080B0896B
:100E8000401EB081F088718988420DD10020F08029
:100E90000AE0607900F00F00012805D1E088401ECB
:100EA000E0804FF0FF30286105480068854202D19C
:100EB0000120687102E0284600F0A0F900BFB1E708
:100EC0005400002002480078C04301490870704770
:100ED0006E00002010B501F09FFBFFF731FA00F023
:100EE00009FAFFF713FB10BD2DE9F041024600257A
:100EF0000026002000230024002791F803C00CF0F6
:100F00000F0591F803C01CF0100F03D091F802C038
:100F10004CEA050591F800C0BCF1000F31D014680F
:100F200000202BE04FF0010C0CFA00F3B1F800C0E8
:100F30000CEA03069E4220D183004FF00F0C0CFAFE
:100F400003F7BC4305FA03FC4CEA040491F803C020
:100F5000BCF1280F06D14FF0010C0CFA00FCC2F8CE
:100F600014C00AE091F803C0BCF1480F05D14FF05E
:100F7000010C0CFA00FCC2F810C0401C0828D1D3A8
:100F80001460B1F800C0BCF1FF0F34DD54680020DC
:100F90002EE000F1080C4FF0010808FA0CF3B1F84C
:100FA00000C00CEA03069E4221D183004FF00F0CD3
:100FB0000CFA03F7BC4305FA03FC4CEA040491F86D
:100FC00003C0BCF1280F05D100F1080C08FA0CF899
:100FD000C2F8148091F803C0BCF1480F07D100F1AA
:100FE000080C4FF0010808FA0CF8C2F81080401CF9
:100FF0000828CED35460BDE8F081024600209368F3
:101000000B4201D0012000E0002070474161704791
:101010000161704700BFFEE710B5034610464FF070
:10102000807440F8044940F804396FF0010404600A
:1010300014380160203810BD30B50B4603B930BDFF
:101040001E4C24681CB903621C4C20602FE01B4C12
:1010500021681A4628E00C6A121B002A1BDA8C6AE7
:1010600034B18C6A60628C6A84624162886207E093
:10107000124C24684462114C2468A0620F4C20601A
:10108000446A246A14440462446A246A056A641B3C
:10109000456A2C620AE0002A05DB4C6A1CB98162B1
:1010A0004862026202E0496A0029D4D100BF0224EA
:1010B00044710124024D2C7000BFC0E76000002085
:1010C000320000202DE9F041044604EB4400484979
:1010D00001EBC00047680FB9BDE8F08145480078D2
:1010E000401C444908704448006838B904EB440087
:1010F0003F4901EBC0004049086075E03E48056883
:101100003E466EE06868361A002E54DA6869C8B147
:1011100004EB4400364901EBC0006969086104EB47
:101120004401334A02EBC1016869486104EB4400A1
:10113000114601EBC000056104EB440001EBC00067
:10114000686116E02C48006804EB4401284A02EB71
:10115000C101086104EB4400114601EBC0002649BF
:101160000968486104EB4400114601EBC0002249C4
:10117000086004EB44001E4901EBC00000694068B0
:10118000304404EB44011A4A02EBC101486004EB0D
:101190004400114601EBC0000069406804EB4401C3
:1011A00002EBC1014968401A04EB440102EBC101A2
:1011B0000969486017E0002E12DB286980B904EB4A
:1011C00044000B4901EBC000456104EB440001EB16
:1011D000C000286104EB440001EBC000466002E05F
:1011E0002D69002D8ED100BF00F014F900BF73E708
:1011F000440C00203100002064000020F0B5037989
:10120000002444711E4C21680C799C4213D1814208
:1012100011D081B11B4CD4E900541B4ED6E90076A5
:10122000ED1BB44107D24C89174FC0CFA41947F129
:101230000005144E30C6154C216829B90124144DFF
:101240002C70124C20601AE00C799C4207DD0124BE
:101250000F4D2C70416288620C4C20600FE04A6A8E
:1012600005E014799C4200DD03E01146526A002A31
:10127000F7D100BF42624862816202B19062F0BD64
:101280005400002058000020280000204C000020BE
:101290003200002008B54FF49850ADF8000004204B
:1012A0008DF8030069460248FFF71EFE08BD0000E6
:1012B0000010014070B504460025012C02D0022C1C
:1012C0000ED106E04FF480710948FFF796FE0546FF
:1012D00008E04FF400710648FFF78FFE054601E075
:1012E000012500BF00BF0DB1002070BD0120FCE74B
:1012F0000010014008B54FF40050ADF80000022086
:101300008DF8020010208DF8030069460148FFF7B0
:10131000EBFD08BD0010014010B54FF4005102482C
:10132000FFF776FE10BD00000010014010B54FF42D
:1013300000510248FFF76AFE10BD00000010014096
:1013400000BFFEE7704708B54FF4E06000F058F8C2
:101350001A208DF8000000208DF8010001208DF882
:1013600002008DF80300684600F010F81D208DF88B
:10137000000000208DF8010002208DF802000120FD
:101380008DF80300684600F001F808BD70B5002133
:1013900000230F22C4780CB3164C246804F4E064D4
:1013A000C4F5E064210AC1F10403CA40447804FA98
:1013B00003F184781440214309010F4C0678A155AC
:1013C000047804F01F050124AC4005786D114FF03E
:1013D000E02606EB8505C5F8004109E0047804F035
:1013E0001F050124AC40054D0678761145F82640CE
:1013F00070BD00000CED00E000E400E080E100E0E2
:1014000002490143024A1160704700000000FA05DA
:101410000CED00E010B50D48007801280FD10C4804
:101420000078012801D100F0EDF90A480078012880
:1014300001D100F05DFA00200449087004E003487F
:101440000078401E0149087010BD000031000020E6
:10145000440000203200002010B500F04DF8FFF7E6
:1014600072FFFFF737FDFFF7DFF8FFF76DF901F0C7
:10147000B7F8FEF72FFF10BD29B1064AD269024323
:10148000044BDA6104E0034AD2698243014BDA611A
:10149000704700000010024029B1064A1269024359
:1014A000044B1A6104E0034A12698243014B1A613A
:1014B000704700000010024029B1064A92690243B9
:1014C000044B9A6104E0034A92698243014B9A619A
:1014D000704700000010024029B1064AD26802435A
:1014E000044BDA6004E0034AD2688243014BDA60BD
:1014F000704700000010024010B500F07DFB012194
:1015000040F61D20FFF7D8FF01214FF00210FFF732
:10151000B3FF10BD30B500210022002400232D4D63
:101520006D6805F00C0121B1042905D0082923D1EB
:1015300005E0294D056022E0274D05601FE0254D9F
:101540006D6805F47012234D6D6805F48034022532
:1015500005EB92421CB9214D554305600BE01D4D32
:101560006D6815F4003F03D01C4D5543056002E043
:10157000194D5543056002E0174D056000BF00BFDF
:10158000144D6D6805F0F0010909154D6B5C056897
:10159000DD4045600F4D6D6805F4E061090A104DAE
:1015A0006B5C4568DD4085600A4D6D6805F46051EF
:1015B000C90A0B4D6B5C4568DD40C560054D6D6823
:1015C00005F44041890B074D6B5CC568B5FBF3F52D
:1015D000056130BD0010024000127A0000093D0094
:1015E0001000002020000020816A29B9416A19B941
:1015F0000021164A116025E0816A69B9134A416ADF
:101600001160416A096A026A1144426A116200214A
:10161000426A9162416215E0416A21B90021826A01
:10162000516281620EE0D0E909125162D0E90921CC
:101630009162416A096A026A1144426A1162002198
:10164000416281624FF0FF3101627047600000200B
:10165000027A134B03EB0211426922B9826912B973
:101660000022CA6019E082693AB9002243699A618E
:101670004269CA60002242610FE0426922B9002239
:1016800083695A61826108E0D0E905235A61D0E993
:1016900005329A61002282614261FF220272704724
:1016A0009008002070B50546284600F03FF8EC6829
:1016B000206A401C02D02046FFF796FF4FF0FF3013
:1016C000E06106480068844202D10120607102E0B6
:1016D0002046FFF793FD286870BD000054000020ED
:1016E000416A29B9816A19B900210F4A116019E0CC
:1016F000816A39B90C4A416A11600021416212685D
:1017000091620FE0416A21B90021826A51628162CF
:1017100008E0D0E909125162D0E909219162002163
:1017200041628162704700004C000020016831B9BD
:10173000416821B90021104AD160116117E00168A8
:1017400031B90D4A416811610021426811600EE013
:10175000416831B9084A0168D160002102685160CE
:1017600005E0D0E900215160D0E9001211600021AC
:10177000C268D16170470000D009002070B50546ED
:1017800005EB45001C4901EBC0041C480078401CD7
:101790001A490870606928B9206918B900201849E9
:1017A000086026E0606970B915492069086000206A
:1017B0000968486120694068616808442169486097
:1017C0000020206115E0206920B9002061690861CE
:1017D00060610EE0D4E904010861D4E904104861B5
:1017E00020694068616808442169486000202061E0
:1017F0006061FFF70FFE70BD440C00203100002037
:10180000640000201CB52F480078012804D100F0A6
:101810008DFE00202B4908702B480078012804D148
:1018200000F0AAFE0020284908703CE0FEF7C2FC48
:1018300026484178001D00EBC10103C9CDE9000134
:1018400022484078401C052190FBF1F201FB120078
:101850001E49487008460078401E0870FEF7A8FC34
:101860009DF80000012806D0022809D003280DD0D9
:10187000042816D10FE09DF80100FFF7FFF811E0F2
:101880009DF801000199FFF797F80BE09DF8010022
:10189000FFF71EF906E09DF801000199FFF7B4F883
:1018A00000E000BF00BF094800780028BED1FEF765
:1018B00081FC0648007810B9002005490870FEF741
:1018C00077FC1CBD4500002046000020AC0A00202B
:1018D000440000207047000010B500244FF48051F0
:1018E0000248FFF78AFB0446204610BD0010014065
:1018F0002DE9F04135480568354804685CB1354844
:101900000068854207D134480078012803DC334859
:101910000078002801DDBDE8F08100203049087022
:101920002E7927796879012807D02A480460012098
:1019300060712046FFF7D4FE23E0B7420ADA25485B
:1019400004602846FFF75AFC2046FFF7C9FE012035
:10195000607116E0BE4213D1224903C9224AD2E97E
:1019600000325840514008430AD11A4804602846C2
:10197000FFF744FC2046FFF7B3FE0120607100E052
:10198000C9E7144800680079114909680979884253
:101990000BD110480068408913490CC901468918C9
:1019A00043F100000F4AC2E90010E9682868884244
:1019B00004D3E86800680D49884202D0A879FFF78F
:1019C000F1F8FEF7FDFB00BFA5E700005400002082
:1019D0004C0000205000002031000020300000208A
:1019E000320000205800002028000020A5A55A5AE7
:1019F00010B500F001F810BD002100202E4A126839
:101A000042F480322C4B1A6000BF2B4A126802F459
:101A10000030491C10B9B1F5A06FF6D1264A126802
:101A200012F4003F01D0012000E00020012842D143
:101A3000224A126842F01002204B1A601A461268BD
:101A400022F003021A601A46126842F002021A607B
:101A5000194A5268184B5A601A4652685A601A4618
:101A6000526842F480625A601A46526822F47C122C
:101A70005A601A46526842F4E8125A601A461268CE
:101A800042F080721A6000BF0B4A126812F0007FA9
:101A9000FAD0094A526822F00302074B5A601A46EC
:101AA000526842F002025A6000BF034A526802F0D4
:101AB0000C02082AF9D170470010024000200240B1
:101AC0000146084800683C30064A1060104600682D
:101AD00040F21452904202DBC820024A10600148D2
:101AE00000687047780000200148006870470000D7
:101AF000780000200020144909680860124909682C
:101B0000486011490968886032200F490968C86037
:101B100000200D49096848620B49096888620A4932
:101B20000968C86209490A48074A1268C2E90410EC
:101B300008490948044A1268C2E90610002002490F
:101B4000096808627047000074000020CDCCCCCC3E
:101B5000CCCCE43FFCA9F1D24D62603F10B52148E6
:101B60000078401C1F4908701F48D0E90020521C13
:101B700040F100001C49C1E900201C48006890B1F8
:101B80001A480068006A012807D918480068006AE6
:101B9000401E16490968086205E0002013490968DB
:101BA000086200F063FE1248006890B110480068B7
:101BB0004068012807D90E4800684068401E0C495B
:101BC0000968486005E0002009490968486000F09C
:101BD00061FE012007490870FEF7F2FAFFF71AFCD0
:101BE00010BD00003100002028000020600000200F
:101BF000640000203200002010B51348006840F057
:101C000001001149086008464068104908400E4923
:101C10004860084600680E4908400B4908600846BD
:101C2000006820F4802008600846406820F4FE0028
:101C300048604FF41F008860FFF7DAFE4FF0006045
:101C40000449086010BD0000001002400000FFF8C9
:101C5000FFFFF6FE08ED00E0022400250126FFF755
:101C600019FBFFF747FF00BFFFF736FE704010D0AB
:101C70000DB1FEF7A1FCFFF72FFE06461EB10120B5
:101C80001B49087002E00020194908700DB1FEF7E9
:101C900073FC0120FFF70EFB80B10520FEF784FFE7
:101CA0000120FFF707FB48B1FEF766FC01250B2C6E
:101CB00000DB0224641C2046FFF702FF0220FFF72E
:101CC000F9FA88B10520FEF76FFF0220FFF7F2FA5C
:101CD00050B1FEF771FCFFF7F5F800250C2C00DB86
:101CE00002242046FFF7ECFE0A20FEF75DFFBBE76B
:101CF0006C0000200024002500BF0024002510E017
:101D000001210E48FEF7D5FB00BF0C48FEF73EFB55
:101D10000028FAD10948FEF72BFB204484B2681C46
:101D2000C5B2042DECDB2046E11704EB917189105C
:101D3000034A11600A20FEF737FFDEE70024014066
:101D40007000002000BF0B48007878B10A48006896
:101D500000EB400040000949B1FBF0F084B221469D
:101D6000074800F00BFD0020024908700120FEF733
:101D70001BFFE8E7000000200C00002040420F009D
:101D800000440040FFF7C8FA00BFFFF7CFFAC820B1
:101D9000FEF70AFFFFF7C0FAC820FEF705FFF4E7D9
:101DA000F0B50C46154600210022068C4FF6FE7752
:101DB0003E400684018B028C4FF60C7631407E1C2F
:101DC00006EA03162E4331437E1E324044F00106DC
:101DD000324301830284F0BDF0B50C461546002164
:101DE00000220026078C4FF6EF7C07EA0C070784D9
:101DF000018B028C4FF6FF7707EA041640F6FF4787
:101E000039404FF6FF7707EA033739434FF6FF773C
:101E100007EA052739434FF6DF773A4046F01007C7
:101E20003A4301830284F0BDF0B50C46154600210B
:101E300000220026078C4FF6FF6C07EA0C07078488
:101E4000818B028C4FF6FF7707EA04264FF60C775A
:101E500039404FF6FF7707EA03172F4339434FF610
:101E6000FF573A4046F480773A4381830284F0BDBD
:101E7000F0B50C461546002100220026078C4EF6D0
:101E8000FF7C07EA0C070784818B028C4FF6FF77F3
:101E900007EA043640F6FF4739404FF6FF7707EA76
:101EA000052739434FF6FF7707EA033739434DF6E5
:101EB000FF773A4046F480573A4381830284F0BD6D
:101EC00010B5FEF779FBFFF731FA8021014800F0E9
:101ED000B3F810BD002C014010B504480088002064
:101EE0000249088000F05CFC10BD0000102C01408D
:101EF00010B54048008810F0100F17D03D480088FA
:101F00004FF6EF7108403B4908803B4800780328B2
:101F100007DD00203849087038480078401C3749F0
:101F2000087035480078401C3349087031480088F3
:101F300010F0400F5CD02F4800884FF6BF7108406A
:101F40002C4908802B48243000884010294928312A
:101F50000880081F0088284909784FF6FF7202FBA5
:101F6000010081B22648274A127820F8121025482D
:101F70000078401C2349087008460078092832DDA3
:101F8000002008700EE01E481E49097830F8110044
:101F90001D49096808441C4908601A480078401C1B
:101FA00018490870174800780A28ECDB16480068C2
:101FB0000A21B0FBF1F014490860FFF795FD1349C1
:101FC0000860084600881249088010480088091DEA
:101FD00008800E480088091D088000200949087003
:101FE00001200C490870002003490870034908705B
:101FF00010BD000010040040040000206D0000200F
:102000007C080020050000200C00002008000020B3
:10201000342C0140000000200A884B881A438B882A
:102020001A43CB881A430B891A434B891A438B896D
:102030001A43A0F844207047CA430282704721B176
:10204000028842F00102028004E0028840F2FE337E
:102050001A400280704731B1B0F8442042F4004287
:10206000A0F8442005E0B0F84420C2F30E02A0F826
:102070004420704710B504462F48844208D10121FE
:10208000C014FFF729FA0021E014FFF725FA52E007
:10209000B4F1804F08D101210846FFF7FDF9002176
:1020A0000120FFF7F9F946E02448844208D10121D4
:1020B0000220FFF7F1F900210220FFF7EDF93AE0E5
:1020C0001F48844208D101210420FFF7E5F90021CF
:1020D0000420FFF7E1F92EE01A48844208D10121DB
:1020E0000820FFF7D9F900210820FFF7D5F922E0F1
:1020F0001548844208D101211020FFF7CDF90021B5
:102100001020FFF7C9F916E01048844208D10121D8
:102110002020FFF7C1F900212020FFF7BDF90AE0D8
:102120000B48844207D101214014FFF7D5F9002163
:102130006014FFF7D1F910BD002C014000040040ED
:1021400000080040000C0040001000400014004057
:102150000034014070B505460C46208850B92389EB
:10216000A28861882846FFF71BFEE188284600F018
:1021700093F925E0208804280AD12389A288618860
:102180002846FFF729FEE188284600F08EF917E07F
:10219000208808280AD12389A28861882846FFF769
:1021A00043FEE188284600F08DF909E02389A288E2
:1021B00061882846FFF75CFEE188284600F08BF92D
:1021C00070BD1AB183890B43838102E083898B43FD
:1021D0008381704770B5002400220023058C4FF6E0
:1021E000FE7635400584028C8388048B4FF68F750C
:1021F0002C400D882C43751E2A400D892A434D889A
:102200002A43CD8885860F4DA84202D00E4DA842A4
:1022100013D14FF6F7752A404D892A434FF6FB75C7
:102220002A408D882A4347F6FF652B4047F6FF5525
:102230002B408D892B43CD892B43838004830284DB
:1022400070BD0000002C0140003401400A4600210E
:10225000018B4FF6F773194011430183704700005B
:1022600070B5002400220023058C4FF6EF76354030
:102270000584028C8388048B48F6FF752C400D88FA
:102280004FF6FF7606EA05252C434FF6DF752A4008
:102290000D8906EA05152A434D8806EA05152A43E5
:1022A000CD880587134DA84202D0134DA8421DD1F9
:1022B0004FF67F752A404D894FF6FF7606EA0515E1
:1022C0002A434FF6BF752A408D8806EA05152A4332
:1022D00047F6FF352B4047F2FF752B408D8906EA04
:1022E00085052B43CD8906EA85052B43838004832E
:1022F000028470BD002C0140003401400A460021D8
:10230000018B4FF2FF7319404FF6FF7303EA02236C
:10231000194301837047000070B500240022002398
:10232000058C4FF6FF6635400584028C8388848BCC
:102330004FF68F752C400D882C434FF6FF552A40E1
:102340000D894FF6FF7606EA05252A434D8806EAF1
:1023500005252A43CD888587134DA84202D0134D09
:10236000A8421DD14FF2FF752A404D894FF6FF76E6
:1023700006EA05252A434FF6FF352A408D8806EAEE
:1023800005252A4346F6FF752B4045F6FF752B4081
:102390008D8906EA05152B43CD8906EA05152B43E1
:1023A00083808483028470BD002C0140003401408E
:1023B0000A460021818B4FF6F77319401143818340
:1023C0007047000070B5002400220023058C4EF6F3
:1023D000FF7635400584028C8388848B48F6FF7530
:1023E0002C400D884FF6FF7606EA05252C434DF666
:1023F000FF752A400D8906EA05352A434D8806EA0D
:1024000005352A43CD88A0F84050094DA84202D096
:10241000084DA84207D1C3F30D038D894FF6FF760F
:1024200006EA85152B4383808483028470BD0000F7
:10243000002C01400034014021B1828842F080022A
:10244000828004E082884FF67F731A408280704752
:102450000A46002101894FF68F731940114301810B
:10246000704702894FF67F731A40028102890A433E
:102470000281704782884FF68F731A40828082886B
:102480000A438280704702894FF6F8731A4002812E
:1024900002890A4302817047028B4FF6F3731A4098
:1024A0000283028B0A4302837047028B4FF2FF3391
:1024B0001A400283028B4FF6FF7303EA01231A438B
:1024C00002837047828B4FF6F3731A408283828BAC
:1024D0000A4382837047828B4FF2FF331A40828314
:1024E000828B4FF6FF7303EA01231A4382837047FE
:1024F000028802F08F020280CA884B881A43038840
:102500001A4302808A8882850A880285054A904299
:1025100002D0054A904201D10A7A028601228282C3
:1025200070470000002C01400034014010B51148F4
:1025300004681AE0207AFF2802D02046FFF788F8C6
:10254000E06910B1E069FFF7F1F84FF0FF30206269
:102550000849606A0860002060622046FEF74EFE6F
:10256000044804680CB10020A06214B1206A00285D
:10257000E0D010BD6000002010B51048046818E0DD
:10258000607838B92078FFF7F9F80120A070E0688A
:1025900080470CE06078012809D12078FFF7EEF839
:1025A000A06860602078FEF78DFDE06880470348F2
:1025B000046814B160680028E2D010BD64000020F7
:1025C00010B540F22551054800F05EF820B140F208
:1025D0002551024800F03DF810BD000000380140D0
:1025E0001FB54FF4165000900020ADF80600ADF86E
:1025F0000400ADF80800ADF80C000C20ADF80A009E
:102600006946044800F06AF80121024800F030F8F9
:102610001FBD00000044004008B50420ADF80000D4
:1026200018208DF8030003208DF802006946074842
:10263000FEF75AFC0820ADF8000004208DF80300D6
:1026400069460248FEF750FC08BD00000008014042
:10265000704710B500220023A1F510646A3C00D138
:1026600000BF0A1201249440A3B2DC43048010BDD1
:1026700021B1828942F40052828104E082894DF6C0
:10268000FF731A408281704770B502460024002310
:1026900000250020A1F510666A3E00D100BFC1F3FD
:1026A000421501F01F03012606FA03F3012D02D1A2
:1026B0009689334006E0022D02D1168A334001E0AC
:1026C000968A33400C12012606FA04F41688344028
:1026D00013B10CB1012000E0002070BD2DE9F047DE
:1026E00086B005460E460024A24600BF00BF002764
:1026F000B08900B100BF2F462C8A4CF6FF70044011
:10270000F08804432C82AC894EF6F3100440B08864
:1027100031890843718908430443AC81AC8A4FF680
:10272000FF400440B0890443AC8201A8FEF7F2FEEA
:102730001148874202D1DDF810A001E0DDF80CA0BD
:102740000AEBCA0000EB0A1031688900B0FBF1F80F
:102750006420B8FBF0F004012009642101FB10891A
:10276000322000EB0910B0FBF1F000F00F00044341
:102770002C8106B0BDE8F08700380140C1F30802A3
:102780008280704700B585B06A4600210248FEF796
:102790004DF805B000BD00000064004000BFFEE73A
:1027A0002E490968C1F381102D49096801F0010122
:1027B00040EA81002B49097839BB072823D2DFE89A
:1027C00000F02213090E1D18040043F28101264A6D
:1027D000118019E04FF44651234A118014E043F26E
:1027E0000811214A11800FE043F218011E4A11809E
:1027F0000AE043F610011C4A118005E043F601018E
:10280000194A118000E000BF27E0072823D2DFE843
:1028100000F02218041D0E13090043F61001124A9D
:10282000118019E043F218010F4A118014E043F2BD
:1028300008110D4A11800FE04FF446510A4A1180E9
:102840000AE043F28101084A118005E043F60101E4
:10285000054A118000E000BF00BF70470808014032
:10286000080C01406E000020202C014010B50648E5
:102870000078012805DD012004490870044908702A
:1028800001E0FFF753FE10BD31000020440000209E
:102890004500002010B506480078012805DD01201C
:1028A000044908700449087001E0FFF765FE10BD97
:1028B000310000204400002046000020FEF7CCFD3F
:1028C000FEF744F80F4B48F2020200210E48FEF7D3
:1028D000D3F90E4B48F2030200210D48FEF7CCF964
:1028E0000C4B48F2040200210B48FEF7C5F90B4BD4
:1028F00048F2050200210A48FEF7BEF9FEF738F952
:1029000000BFFEE778020020591C00087804002070
:10291000F51C000878060020451D000878080020F6
:10292000851D000844290008000000207C000000EC
:1029300028010008C02900087C0000208C1200003B
:102940004401000800000000000000001405000021
:102950000000000000000000010203040102030463
:102960000607080902040608000000000000000035
:102970000000000000000000000000000000000057
:102980000000000000000000000000000000000047
:102990000000000000000000000000000000000037
:1029A0000000000000000000000000000000000027
:1029B0000100000000000000780C00200000000072
:04000005080000ED02
:00000001FF
